:020000040800F2
:1000000080060020810100082F0B00082D0B00083E
:1000100000000000000000000000000000000000E0
:10002000000000000000000000000000330B00088A
:100030000000000000000000310B0008350B000834
:100040009301000893010008930100089301000840
:100050009301000893010008930100089301000830
:100060009301000893010008930100089301000820
:100070009301000893010008930100089301000810
:100080009301000893010008930100089301000800
:1000900093010008930100089301000893010008F0
:1000A00093010008930100089301000893010008E0
:1000B00093010008410B0008930100089301000818
:1000C00000F002F800F04CF812A030C808382418EC
:1000D0002D18AC4201D100F043F80FCCA246AB463C
:1000E0000CA730CF2D1B083F3F197C427F1E544484
:1000F0002D090426F441641EAC4201D300F030F80F
:100100000126334200D0FB1A3343984754465D46DC
:10011000DFE70000102C0000302C0000103A02D362
:1001200078C878C1FAD8520701D330C830C101D598
:1001300004680C6070470000704700000023002432
:1001400000250026103A01D378C1FBD8520700D30E
:1001500030C100D50B6070471FB51FBD10B510BD75
:1001600000F04DF81146FFF7F7FF00F0F5FC00F046
:1001700065F803B4FFF7F2FF03BC00F06BF8000072
:100180000748804707480047FEE7FEE7FEE7FEE72F
:10019000FEE7FEE704480549054A064B70470000A4
:1001A0003D0B0008C10000088000002080060020F0
:1001B000800200208002002001E004C0091F042901
:1001C000FBD28B0701D50280801CC90700D00270CA
:1001D000704700290BD0C30702D00270401C491E93
:1001E000022904D3830702D50280801C891EE3E71D
:1001F0000022EEE70022DFE7704770477047754640
:1002000000F024F8AE46050069465346C008C00019
:10021000854618B020B5FFF7BDFF60BCB646002686
:100220000027C0C5C0C5C0C5C0C5C0C5C0C5C0C504
:10023000C0C5403D490849008D46704710B5044689
:10024000C046C0462046FFF794FF10BD00487047E7
:100250001000002001491820ABBEFEE72600020076
:1002600070470000F0B589B001900A68002A00D1FB
:10027000B5E00D465B48019B834201D0052000E0BC
:1002800004201721C9065918890A9B05591800919D
:10029000042900D3009000231C461F4607950AE05E
:1002A000114331607F1C2A681046F8401B1DA41CB6
:1002B000002800D193E001260396BE403240F1D0E1
:1002C0000292069303200146A140C9436A6815467D
:1002D00005406B1E012B059213D804910199886883
:1002E000049B1840079BDB68A34003438B60D00648
:1002F000C00FB8404B68B3430E4604990343736084
:1003000006E0032D019E03D10546069B029A20E0DC
:10031000F0680840079B9B68A3400343F360022DED
:10032000069B029A15D11C20184004910F21814090
:10033000FB089B00F3181D6A8D43079E31698140BD
:10034000294319620499069B7068019E0325059054
:100350000540A54030680840284330600598800378
:10036000800F079D9ED04A490868039D2843086076
:100370000868284008900C2018400F218140032372
:100380003D469D43089B194EAB598B4300998140D4
:100390001943A951079D144EB1686868C3020BD573
:1003A0001143B160F16883020BD49143F16071682D
:1003B00083030BD491430AE09143B160F168830257
:1003C000F3D51143F16071688303F3D51143069BA4
:1003D00071603168C00300D562E7914361E709B0FD
:1003E000F0BDC04600100048000401400800014074
:1003F000054800687047C0461A48007802490A68F4
:10040000101808607047C0467800002080B5854805
:10041000016810220A430260032000F005F800F092
:1004200023F8002080BDC04670B504467D20C00082
:100430000C4E317802F062FB01468448006802F0FD
:100440005DFB00F059FB0125032C08D8002806D1DC
:100450000025E84321462A4600F01CF8746028462F
:1004600070BDC0460000002082B00948016801222A
:10047000114301600168114001910199110742681F
:100480000A434260406808400090009802B07047FC
:1004900018100240002805D40322034693430A4A59
:1004A0009A1803E00C220240064BD2188007C00EB7
:1004B0008901C9B28140FF238340106898430843F3
:1004C0001060704714ED00E000E400E0F0B581B08A
:1004D000002846D00446534A1368012003408B424B
:1004E00008D213680126B3430B43136012683240ED
:1004F0008A4237D1009121688A074B4B10D54A07B1
:1005000006D5072212021B681343474A1360464B65
:100510001A68F0239A43A3681343434A1360424B7B
:10052000C90722D13F49086801263040009A90420D
:1005300005D90868B04308600868C00712D1207860
:10054000400706D50720000219688143E068084388
:1005500018601A681007810F3548022912D2044624
:1005600050E00126304601B0F0BD616803290DD08E
:100570001A1F02290FD0012912D1126892030646D0
:10058000F0D511E0032926D12A4C3BE01A6B9203E7
:100590000646E7D508E0126892010646E2D503E078
:1005A000126892070646DDD518680326B043084353
:1005B0001860FFF71DFF07461C4D1B4B18680C21E8
:1005C0000140606880008142ACD0FFF711FFC01B82
:1005D000A842F2D9C6E70321CB031349896A0F2445
:1005E0000C401549095D94021A40240F134D2C5DEF
:1005F0009A4202D033049A4200E00E4802F07EFA9A
:100600004443094B18680006000F0D49085CC440BC
:100610000E4804600320FFF707FF0026304601B0B4
:10062000F0BDC046002002400410024088130000C4
:1006300000127A00006CDC02122D0008022D000866
:10064000F22C0008014800687047C04608000020EE
:10065000F0B587B004460120002C00D145E204909B
:100660002078C007F94E05940CD071680C20014029
:10067000042900D090E03068800303D5606800282A
:1006800000D120E12078800721D570680007800F15
:100690000ED070680C210140082900D09DE0032095
:1006A000C003716801400120C003814200D094E082
:1006B00030688007059C03D5E068012800D002E17E
:1006C0003068F82188432169C90001433160059CE5
:1006D0002078000724D42078400737D42078C0063B
:1006E00000D4D3E005984069411D00D1C2E0012843
:1006F00000D030E1706B042101437163706B012104
:1007000001437163FFF774FE0546706B800700D5E7
:10071000B4E0FFF76DFE411B03200229F5D9E4E1A7
:10072000706AE169002900D181E00121084370620B
:10073000FFF75EFE0546706A8007CCD4FFF758FECF
:10074000401B0228F7D9032007B0F0BD0120039019
:100750000107F0690840029006D1F0690843F06192
:10076000F0690840069006980191E14F3868C0058D
:100770004AD403980402386820433860FFF738FEF3
:100780000546386820423FD1FFF732FE401B6428FF
:10079000F7D9032007B0F0BD71680140082908D1DE
:1007A0000320C0037168014001200004814200D190
:1007B00061E7616801204704002900D117E105299C
:1007C00000D12BE1012900D12CE1010432688A43D8
:1007D000326081043068884327E13068059CE16815
:1007E000002936D0012108433060FFF701FE05469D
:1007F0003068800700D563E7FFF7FAFD401B022849
:10080000F6D9032007B0F0BD05988068002800D114
:10081000B6E0052800D1C9E0012800D1CAE0306A5D
:10082000039988433062306A04218843C5E001217E
:1008300088437062FFF7DCFD0546706A800700D4CC
:1008400049E7FFF7D5FD401B0228F6D9032007B082
:10085000F0BD012188433060FFF7CAFD05463068CE
:10086000800700D433E7FFF7C3FD411B03200229B3
:10087000F5D93AE1706B042188437063706BF821FD
:10088000884305998969C900014371630598007817
:1008900080060BD571680C2001400C2939D1706B92
:1008A000800303D50598006A01280CD10598446A95
:1008B000002C00D1E1E070680C210140082905D12D
:1008C000012C00D0C4E0049807B0F0BD012002065E
:1008D00031680492914331604706FFF789FD054670
:1008E000022C0BD1049C3068384200D1DEE0FFF7C7
:1008F0007FFD411B03200229F5D9F6E0306838421C
:1009000000D1BAE0FFF774FD411B03200229F5D99D
:10091000EBE071680140082905D10320C00371682C
:1009200001408142BBD0706B0599096A002900D152
:10093000A9E001210A04104370634C04FFF758FD3D
:100940000546706B2042B1D1FFF752FD411B0320D9
:100950000229F6D9C9E0706B042101437163706B01
:10096000012188437063FFF743FD0546706B8007E4
:100970008CD5FFF73DFD411B03200229F6D9B4E0D9
:10098000306A039988433062306A042188433062B8
:10099000584CFFF72DFD0546306A80071DD5FFF73F
:1009A00027FD411B0320A142F6D99EE0306A0421B5
:1009B00001433162306A0399084330624D4CFFF7BE
:1009C00017FD0546306A800707D4FFF711FD401B6D
:1009D000A042F7D9032007B0F0BD02980028059C7B
:1009E00000D07BE6F06901998843F06176E6010466
:1009F00032688A4332608004316881433160FFF796
:100A0000F7FC0546059C3068384200D13AE6FFF70E
:100A1000EFFC411B03206429F5D966E081043268AC
:100A20000A4332600104306808433060FFF7E0FC9D
:100A300005463068384200D024E6FFF7D9FC401B59
:100A40006428F6D9032007B0F0BDC046001002406C
:100A50000320C20370680240F16A059CA36A9A42AF
:100A6000049D0DD10F221140236B994208D19104AE
:100A70000840E16A8842284637D1002007B0F0BD1F
:100A8000284607B0F0BD01210A04904370634C046E
:100A9000FFF7AEFC0546706B204200D106E7FFF77A
:100AA000A7FC411B03200229F5D91EE0F06A0F21A3
:100AB0008843059A116B0143F1627B20C003716882
:100AC0008143D06A0843916A0143716030682043D2
:100AD0003060FFF78DFC044630683842CDD1FFF717
:100AE00087FC011B03200229F6D907B0F0BDC046E0
:100AF0000070004088130000401E010E01D001204C
:100B000070470749074A5060074803680B400321B4
:100B10008907591801600020906007211160704713
:100B2000FFFFFF0010E000E020ED00E0FEE7FEE741
:100B30007047704780B5FFF75FFC80BD70470000CD
:100B4000C34801784170034909880170012141605F
:100B50007047C0462448004000B597B0FFF756FCE8
:100B60000AAD281D3021FFF745FB00241394102007
:100B70000E9001270D9702200A902846FFF768FD86
:100B8000002803D0EFF3108072B6FEE708940794B4
:100B900006940720059005A82146FFF797FC00283A
:100BA00003D0EFF3108072B6FEE7F80498490A68A4
:100BB00002430A60B8048A6802438A6095A00AA9C1
:100BC0000A4628C828C268C868C297A005AA049225
:100BD00048C848C268C868C2984D2E46143E304680
:100BE000FFF740FB30460499FFF73CFB39022869C8
:100BF0000191084328612869914908402861B80299
:100C0000296981432961F8022969814329613803EF
:100C10002969014329617803296981432961B9035D
:100C20000491286988432861F8032969814329616F
:100C3000844E30461C380168394301600168042243
:100C40000A430260016808220A4302600168202505
:100C500029430160FFF7F6FCE121490201F04EFF54
:100C6000314610390A6802430A60780776490860FD
:100C7000FF20000275490A68824304981018086032
:100C80003068000608D43068000605D430680006D5
:100C900002D430680006F3D543200390B081306859
:100CA000000608D43068000605D43068000602D477
:100CB00030680006F3D54D200290B0813068000600
:100CC00008D43068000605D43068000602D43068C5
:100CD0000006F3D544200490B0813068000608D4A3
:100CE0003068000605D43068000602D4306800067B
:100CF000F3D5780200903F27554BB7815C60586868
:100D00000128FBD118783168090608D43168090632
:100D100005D43168090602D431680906F3D5B081DB
:100D20001878302857D01878312800D1D9E11878B0
:100D3000322800D12EE31A781F7819781878722A91
:100D4000DCD0672FDAD06F29D8D06728D6D03068AA
:100D5000000608D43068000605D43068000602D4C6
:100D600030680006F3D54520B0813068000608D40D
:100D70003068000605D43068000602D430680006EA
:100D8000F3D57227B7813068000608D430680006B2
:100D900005D43068000602D430680006F3D5B78168
:100DA0003068000608D43068000605D430680006B4
:100DB00002D430680006F3D56F20B0813068000699
:100DC0009BD43068000698D43068000695D430680B
:100DD0000006F3D591E758786238102800D939E138
:100DE0004000C04678448088400087443300330187
:100DF000330133013301790433013301330133010A
:100E00003301330133019B0533013301BD06C04675
:100E100014100240000C000002000000000000005E
:100E20000000000000000000C003000001000000FE
:100E3000000000000000000000000000140800484E
:100E4000FFFDFFFF1C48004000E100E01CE400E063
:100E500070000020B14A106880218843106030681B
:100E6000000608D43068000605D43068000602D4B5
:100E700030680006F3D54220B0813068000608D4FF
:100E80003068000605D43068000602D430680006D9
:100E9000F3D56C20B0813068000608D430680006B5
:100EA00005D43068000602D430680006F3D57520FA
:100EB000B0813068000608D43068000605D4306878
:100EC000000602D430680006F3D56520B081306892
:100ED000000608D43068000605D43068000602D445
:100EE00030680006F3D5B5813068000608D4306854
:100EF000000605D43068000602D430680006F3D539
:100F00004C20B0813068000608D43068000605D453
:100F10003068000602D430680006F3D54520B08161
:100F20003068000608D43068000605D43068000632
:100F300002D430680006F3D50498B081306800060A
:100F400008D43068000605D43068000602D4306842
:100F50000006F3D5B5813068000608D43068000675
:100F600005D43068000602D430680006F3D56F203F
:100F7000B0813068000608D43068000605D43068B7
:100F8000000602D430680006F3D56620B0813168CF
:100F9000090608D43168090605D43168090602D467
:100FA00031680906F3D5B0813068000608D430688E
:100FB000000605D43068000602D430680006F3D578
:100FC0000A27B7813068000608D43068000605D4C7
:100FD0003068000602D430680006F3D50398B0816B
:100FE0003068000608D43068000605D43068000672
:100FF00002D430680006F3D50298B081306800064C
:1010000008D43068000605D43068000602D4306881
:101010000006F3D50498B0813068000608D4306823
:10102000000605D43068000602D430680006F3D507
:101030003F20B0813068000600D55EE630680006CB
:1010400000D55AE63068000600D556E6306800063E
:10105000F0D552E63068000608D43068000605D4A2
:101060003068000602D430680006F3D54520B08110
:101070003068000608D43068000605D430680006E1
:1010800002D430680006F3D57227B78130680006B5
:1010900008D43068000605D43068000602D43068F1
:1010A0000006F3D5B7813068000608D43068000622
:1010B00005D43068000602D430680006F3D56F20EE
:1010C000B0813068000600D517E63068000600D50C
:1010D00013E63068000600D50FE630680006F0D54C
:1010E0000BE658786238102800D90CE14000C04661
:1010F00078448088400087441300060106010601F9
:1011000006012D060601060106010601060106017B
:1011100006013307060106014508C04614080048C9
:10112000AA4A10688021014311603068000608D483
:101130003068000605D43068000602D43068000626
:10114000F3D54220B0813068000608D4306800062C
:1011500005D43068000602D430680006F3D56C2050
:10116000B0813068000608D43068000605D43068C5
:10117000000602D430680006F3D57520B0813068CF
:10118000000608D43068000605D43068000602D492
:1011900030680006F3D56520B0813068000608D4B9
:1011A0003068000605D43068000602D430680006B6
:1011B000F3D5B5813068000608D43068000605D440
:1011C0003068000602D430680006F3D54C20B081A8
:1011D0003068000608D43068000605D43068000680
:1011E00002D430680006F3D54520B081306800068F
:1011F00008D43068000605D43068000602D4306890
:101200000006F3D50498B0813068000608D4306831
:10121000000605D43068000602D430680006F3D515
:10122000B5813068000608D43068000605D43068FF
:10123000000602D430680006F3D56F20B081306814
:10124000000608D43068000605D43068000602D4D1
:1012500030680006F3D56E20B0813068000608D4EF
:101260003068000605D43068000602D430680006F5
:10127000F3D50A27B7813068000608D43068000625
:1012800005D43068000602D430680006F3D5039810
:10129000B0813068000608D43068000605D4306894
:1012A000000602D430680006F3D50298B081306899
:1012B000000608D43068000605D43068000602D461
:1012C00030680006F3D50498B0813068000608D471
:1012D0003068000605D43068000602D43068000685
:1012E000F3D53F20B0813068000600D505E53068B1
:1012F000000600D501E53068000600D5FDE4306841
:101300000006F0D5F9E43068000608D4306800061D
:1013100005D43068000602D430680006F3D54520B5
:10132000B0813068000608D43068000605D4306803
:10133000000602D430680006F3D57227B781306802
:10134000000608D43068000605D43068000602D4D0
:1013500030680006F3D5B7813068000608D43068DD
:10136000000605D43068000602D430680006F3D5C4
:101370006F20B0813068000600D5BEE430680006FA
:1013800000D5BAE43068000600D5B6E4306800063F
:10139000F0D5B2E458786238102800D952E1400004
:1013A000784480884000874413004D014D014D0171
:1013B0004D01D9074D014D014D014D014D014D012B
:1013C0004D0123094D014D017B0AC0461408004818
:1013D000C24A10688021414011603068000608D47C
:1013E0003068000605D43068000602D43068000674
:1013F000F3D54220B0813068000608D4306800067A
:1014000005D43068000602D430680006F3D56C2796
:10141000B7813068000608D43068000605D430680B
:10142000000602D430680006F3D57520B08130681C
:10143000000608D43068000605D43068000602D4DF
:1014400030680006F3D56520B0813168090608D4FC
:101450003168090605D43168090602D431680906E5
:10146000F3D5B5813168090608D43168090605D479
:101470003168090602D431680906F3D54C21B181DF
:101480003168090608D43168090605D431680906AF
:1014900002D431680906F3D54521B18131680906C6
:1014A00008D43168090605D43168090602D43168C8
:1014B0000906F3D50499B1813168090608D4316869
:1014C000090605D43168090602D431680906F3D546
:1014D000B5813168090608D43168090605D4316838
:1014E000090602D431680906F3D57421B181316847
:1014F000090608D43168090605D43168090602D402
:1015000031680906F3D56F21B1813168090608D425
:101510003168090605D43168090602D43168090624
:10152000F3D56721B1813268120608D432681206F9
:1015300005D43268120602D432681206F3D5B1819E
:101540003168090608D43168090605D431680906EE
:1015500002D431680906F3D5B7813168090608D489
:101560003168090605D43168090602D431680906D4
:10157000F3D5B0813068000608D43068000605D481
:101580003068000602D430680006F3D56420B081CC
:101590003068000608D43068000605D430680006BC
:1015A00002D430680006F3D50A27B78130680006F8
:1015B00008D43068000605D43068000602D43068CC
:1015C0000006F3D50398B0813068000608D430686F
:1015D000000605D43068000602D430680006F3D552
:1015E0000298B0813068000608D43068000605D43F
:1015F0003068000602D430680006F3D50498B08144
:101600003068000608D43068000605D4306800064B
:1016100002D430680006F3D53F20B0813068000660
:1016200001D5FFF76AFB3068000601D5FFF765FBBF
:101630003068000601D5FFF760FB30680006EDD585
:10164000FFF75BFB3068000608D43068000605D45D
:101650003068000602D430680006F3D54520B0811A
:101660003068000608D43068000605D430680006EB
:1016700002D430680006F3D57227B78130680006BF
:1016800008D43068000605D43068000602D43068FB
:101690000006F3D5B7813068000608D4306800062C
:1016A00005D43068000602D430680006F3D56F20F8
:1016B000B0813068000601D5FFF71FFB30680006D7
:1016C00001D5FFF71AFB3068000601D5FFF715FBBF
:1016D00030680006EDD5FFF710FBC046140800483F
:1016E0008E4908688E4A104008603068000608D4A9
:1016F0003068000605D43068000602D43068000661
:10170000F3D54720B0813068000608D43068000661
:1017100005D43068000602D430680006F3D5722084
:10172000B0813068000608D43068000605D43068FF
:10173000000602D430680006F3D56520B081316818
:10174000090608D43168090605D43168090602D4AF
:1017500031680906F3D5B0813068000608D43068D6
:10176000000605D43068000602D430680006F3D5C0
:101770006E20B0813068000608D43068000605D4B9
:101780003068000602D430680006F3D5B5813068B1
:10179000000608D43068000605D43068000602D47C
:1017A00030680006F3D5B5813068000608D430688B
:1017B000000605D43068000602D430680006F3D570
:1017C0004C20B0813068000608D43068000605D48B
:1017D0003068000602D430680006F3D54520B08199
:1017E0003068000608D43068000605D4306800066A
:1017F00002D430680006F3D50498B0813068000642
:1018000008D43068000605D43068000602D4306879
:101810000006F3D5B5813068000608D430680006AC
:1018200005D43068000602D430680006F3D56F2076
:10183000B0813068000608D43068000605D43068EE
:10184000000602D430680006F3D56620B081316806
:10185000090608D43168090605D43168090602D49E
:1018600031680906F3D5B0813068000608D43068C5
:10187000000605D43068000602D430680006F3D5AF
:101880000A27B7813068000608D43068000605D4FE
:101890003068000602D430680006F3D50398B081A2
:1018A0003068000608D43068000605D430680006A9
:1018B00002D430680006F3D50298B0813068000683
:1018C00008D43068000605D43068000602D43068B9
:1018D0000006F3D50498B0813068000608D430685B
:1018E000000605D43068000602D430680006F3D53F
:1018F0003F20B0813068000601D5FFF7FEF930685F
:10190000000601D5FFF7F9F93068000601D5FFF7A9
:10191000F4F930680006EDD5FFF7EFF91408004838
:10192000FFFDFFFF8F490868019A90430860306807
:10193000000608D43068000605D43068000602D4DA
:1019400030680006F3D54F20B0813068000608D417
:101950003068000605D43068000602D430680006FE
:10196000F3D57220B0813068000608D430680006D4
:1019700005D43068000602D430680006F3D5612033
:10198000B0813068000608D43068000605D430689D
:10199000000602D430680006F3D56E20B0813068AE
:1019A000000608D43068000605D43068000602D46A
:1019B00030680006F3D56720B0813068000608D48F
:1019C0003068000605D43068000602D4306800068E
:1019D000F3D56520B0813068000608D43068000671
:1019E00005D43068000602D430680006F3D5B5810E
:1019F0003068000608D43068000605D43068000658
:101A000002D430680006F3D54C20B081306800065F
:101A100008D43068000605D43068000602D4306867
:101A20000006F3D54520B0813068000608D4306840
:101A3000000605D43068000602D430680006F3D5ED
:101A40000498B0813068000608D43068000605D4D8
:101A50003068000602D430680006F3D5B5813068DE
:101A6000000608D43068000605D43068000602D4A9
:101A700030680006F3D56F20B0813068000608D4C6
:101A80003068000605D43068000602D430680006CD
:101A9000F3D56620B0813168090608D4316809069B
:101AA00005D43168090602D431680906F3D5B0813E
:101AB0003068000608D43068000605D43068000697
:101AC00002D430680006F3D50A27B78130680006D3
:101AD00008D43068000605D43068000602D43068A7
:101AE0000006F3D50398B0813068000608D430684A
:101AF000000605D43068000602D430680006F3D52D
:101B00000298B0813068000608D43068000605D419
:101B10003068000602D430680006F3D50498B0811E
:101B20003068000608D43068000605D43068000626
:101B300002D430680006F3D53F20B081306800063B
:101B400001D5FFF7DAF83068000601D5FFF7D5F8C0
:101B50003068000601D5FFF7D0F830680006EDD5F3
:101B6000FFF7CBF814080048FC4A1068402188436E
:101B700010603068000608D43068000605D430686C
:101B8000000602D430680006F3D55220B0813068D8
:101B9000000608D43068000605D43068000602D478
:101BA00030680006F3D56520B0813068000608D49F
:101BB0003068000605D43068000602D4306800069C
:101BC000F3D56420B0813068000608D43068000680
:101BD00005D43068000602D430680006F3D5B5811C
:101BE0003068000608D43068000605D43068000666
:101BF00002D430680006F3D54C20B081306800066E
:101C000008D43068000605D43068000602D4306875
:101C10000006F3D54520B0813068000608D430684E
:101C2000000605D43068000602D430680006F3D5FB
:101C30000498B0813068000608D43068000605D4E6
:101C40003068000602D430680006F3D5B5813068EC
:101C5000000608D43068000605D43068000602D4B7
:101C600030680006F3D56F20B0813068000608D4D4
:101C70003068000605D43068000602D430680006DB
:101C8000F3D56620B0813168090608D431680906A9
:101C900005D43168090602D431680906F3D5B0814C
:101CA0003068000608D43068000605D430680006A5
:101CB00002D430680006F3D50A27B78130680006E1
:101CC00008D43068000605D43068000602D43068B5
:101CD0000006F3D50398B0813068000608D4306858
:101CE000000605D43068000602D430680006F3D53B
:101CF0000298B0813068000608D43068000605D428
:101D00003068000602D430680006F3D50498B0812C
:101D10003068000608D43068000605D43068000634
:101D200002D430680006F3D53F20B0813068000649
:101D300001D5FEF7E2FF3068000601D5FEF7DDFFB2
:101D40003068000601D5FEF7D8FF30680006EDD5F3
:101D5000FEF7D3FF81490868009A10430860306895
:101D6000000608D43068000605D43068000602D4A6
:101D700030680006F3D54720B0813068000608D4EB
:101D80003068000605D43068000602D430680006CA
:101D9000F3D57220B0813068000608D430680006A0
:101DA00005D43068000602D430680006F3D56520FB
:101DB000B0813168090608D43168090605D4316854
:101DC000090602D431680906F3D5B08130680006EF
:101DD00008D43068000605D43068000602D43068A4
:101DE0000006F3D56E20B0813168090608D4316849
:101DF000090605D43168090602D431680906F3D50D
:101E0000B5813168090608D43168090605D43168FE
:101E1000090602D431680906F3D54C21B181316835
:101E2000090608D43168090605D43168090602D4C8
:101E300031680906F3D54521B1813168090608D416
:101E40003168090605D43168090602D431680906EB
:101E5000F3D50499B1813168090608D431680906BF
:101E600005D43168090602D431680906F3D5B58175
:101E70003168090608D43168090605D431680906B5
:101E800002D431680906F3D56F21B18131680906A2
:101E900008D43168090605D43168090602D43168CE
:101EA0000906F3D5B0813068000608D43068000612
:101EB00005D43068000602D430680006F3D50A273E
:101EC000B7813068000608D43068000605D4306851
:101ED000000602D430680006F3D50398B08130685C
:101EE000000608D43068000605D43068000602D425
:101EF00030680006F3D50298B0813068000608D437
:101F00003068000605D43068000602D43068000648
:101F1000F3D50498B0813068000608D43068000614
:101F200005D43068000602D430680006F3D53F209F
:101F3000B0813068000601D5FEF7DFFE306800068C
:101F400001D5FEF7DAFE3068000601D5FEF7D5FEB2
:101F500030680006EDD5FEF7D0FEC04614080048F4
:101F6000FD490868019A104308603068000608D4EB
:101F70003068000605D43068000602D430680006D8
:101F8000F3D54F20B0813068000608D430680006D1
:101F900005D43068000602D430680006F3D57220FC
:101FA000B0813068000608D43068000605D4306877
:101FB000000602D430680006F3D56120B081306895
:101FC000000608D43068000605D43068000602D444
:101FD00030680006F3D56E20B0813168090608D458
:101FE0003168090605D43168090602D4316809064A
:101FF000F3D56721B1813168090608D43168090633
:1020000005D43168090602D431680906F3D5652183
:10201000B1813168090608D43168090605D43168F0
:10202000090602D431680906F3D5B581316809067D
:1020300008D43168090605D43168090602D431682C
:102040000906F3D54C21B1813168090608D43168FD
:10205000090605D43168090602D431680906F3D5AA
:102060004521B1813168090608D43168090605D4D3
:102070003168090602D431680906F3D50499B181A3
:102080003168090608D43168090605D431680906A3
:1020900002D431680906F3D5B5813168090608D440
:1020A0003168090605D43168090602D43168090689
:1020B000F3D56F21B1813168090608D4316809066A
:1020C00005D43168090602D431680906F3D5B08118
:1020D0003068000608D43068000605D43068000671
:1020E00002D430680006F3D50A27B78130680006AD
:1020F00008D43068000605D43068000602D4306881
:102100000006F3D50398B0813068000608D4306823
:10211000000605D43068000602D430680006F3D506
:102120000298B0813068000608D43068000605D4F3
:102130003068000602D430680006F3D50498B081F8
:102140003068000608D43068000605D43068000600
:1021500002D430680006F3D53F20B0813068000615
:1021600001D5FEF7CAFD3068000601D5FEF7C5FDB2
:102170003068000601D5FEF7C0FD30680006EDD5D9
:10218000FEF7BBFD744A10684021014311603068BE
:10219000000608D43068000605D43068000602D472
:1021A00030680006F3D55220B0813068000608D4AC
:1021B0003068000605D43068000602D43068000696
:1021C000F3D56520B0813068000608D43068000679
:1021D00005D43068000602D430680006F3D56420C8
:1021E000B0813068000608D43068000605D4306835
:1021F000000602D430680006F3D5B58130680006C9
:1022000008D43068000605D43068000602D430686F
:102210000006F3D54C20B0813068000608D4306841
:10222000000605D43068000602D430680006F3D5F5
:102230004520B0813068000608D43068000605D417
:102240003068000602D430680006F3D50498B081E7
:102250003068000608D43068000605D430680006EF
:1022600002D430680006F3D5B5813068000608D482
:102270003068000605D43068000602D430680006D5
:10228000F3D56F20B0813068000608D430680006AE
:1022900005D43068000602D430680006F3D56E20FD
:1022A000B0813068000608D43068000605D4306874
:1022B000000602D430680006F3D50A27B7813068DB
:1022C000000608D43068000605D43068000602D441
:1022D00030680006F3D50398B0813068000608D452
:1022E0003068000605D43068000602D43068000665
:1022F000F3D50298B0813068000608D43068000633
:1023000005D43068000602D430680006F3D504987E
:10231000B0813068000608D43068000605D4306803
:10232000000602D430680006F3D53F20B081306843
:10233000000601D5FEF7E1FC3068000601D5FEF786
:10234000DCFC3068000601D5FEF7D7FC30680006DB
:10235000EDD5FEF7D2FCC04614080048A349086832
:10236000009A504008603068000608D430680006C3
:1023700005D43068000602D430680006F3D5472043
:10238000B0813068000608D43068000605D4306893
:10239000000602D430680006F3D57220B0813068A0
:1023A000000608D43068000605D43068000602D460
:1023B00030680006F3D56527B7813068000608D479
:1023C0003068000605D43068000602D43068000684
:1023D000F3D5B7813068000608D43068000605D40C
:1023E0003068000602D430680006F3D56E20B08154
:1023F0003068000608D43068000605D4306800064E
:1024000002D430680006F3D5B5813068000608D4E0
:102410003068000605D43068000602D43068000633
:10242000F3D54C20B0813068000608D4306800062F
:1024300005D43068000602D430680006F3D5452084
:10244000B0813068000608D43068000605D43068D2
:10245000000602D430680006F3D50498B0813068D5
:10246000000608D43068000605D43068000602D49F
:1024700030680006F3D5B5813068000608D43068AE
:10248000000605D43068000602D430680006F3D593
:102490007420B0813068000608D43068000605D486
:1024A0003068000602D430680006F3D56F20B08192
:1024B0003068000608D43068000605D4306800068D
:1024C00002D430680006F3D56720B0813168090670
:1024D00008D43168090605D43168090602D4316888
:1024E0000906F3D5B0813068000608D430680006CC
:1024F00005D43068000602D430680006F3D56C209D
:10250000B0813068000608D43068000605D4306811
:10251000000602D430680006F3D5B78130680006A3
:1025200008D43068000605D43068000602D430684C
:102530000006F3D56420B0813068000608D4306806
:10254000000605D43068000602D430680006F3D5D2
:102550000A27B7813068000608D43068000605D421
:102560003068000602D430680006F3D50398B081C5
:102570003068000608D43068000605D430680006CC
:1025800002D430680006F3D50298B08130680006A6
:1025900008D43068000605D43068000602D43068DC
:1025A0000006F3D50498B0813068000608D430687E
:1025B000000605D43068000602D430680006F3D562
:1025C0003F20B0813068000601D5FEF796FB3068E9
:1025D000000601D5FEF791FB3068000601D5FEF735
:1025E0008CFB30680006EDD5FEF787FB1408004829
:1025F000AA490868019A504008603068000608D46B
:102600003068000605D43068000602D43068000641
:10261000F3D54F20B0813068000608D4306800063A
:1026200005D43068000602D430680006F3D5722065
:10263000B0813068000608D43068000605D43068E0
:10264000000602D430680006F3D56120B0813068FE
:10265000000608D43068000605D43068000602D4AD
:1026600030680006F3D56E20B0813068000608D4CB
:102670003068000605D43068000602D430680006D1
:10268000F3D56727B7813068000608D430680006A4
:1026900005D43068000602D430680006F3D5652002
:1026A000B0813168090608D43168090605D431685B
:1026B000090602D431680906F3D5B58131680906E7
:1026C00008D43168090605D43168090602D4316896
:1026D0000906F3D54C21B1813168090608D4316867
:1026E000090605D43168090602D431680906F3D514
:1026F0004521B1813168090608D43168090605D43D
:102700003168090602D431680906F3D50499B1810C
:102710003168090608D43168090605D4316809060C
:1027200002D431680906F3D5B5813168090608D4A9
:102730003168090605D43168090602D431680906F2
:10274000F3D57421B1813168090608D431680906CE
:1027500005D43168090602D431680906F3D56F2122
:10276000B1813168090608D43168090605D4316899
:10277000090602D431680906F3D5B7813168090624
:1027800008D43168090605D43168090602D43168D5
:102790000906F3D5B7813168090608D431680906FE
:1027A00005D43168090602D431680906F3D56C21D5
:1027B000B1813168090608D43168090605D4316849
:1027C000090602D431680906F3D5B08130680006E5
:1027D00008D43068000605D43068000602D430689A
:1027E0000006F3D56420B0813068000608D4306854
:1027F000000605D43068000602D430680006F3D520
:102800000A27B7813068000608D43068000605D46E
:102810003068000602D430680006F3D50398B08112
:102820003068000608D43068000605D43068000619
:1028300002D430680006F3D50298B08130680006F3
:1028400008D43068000605D43068000602D4306829
:102850000006F3D50498B0813068000608D43068CB
:10286000000605D43068000602D430680006F3D5AF
:102870003F20B0813068000601D5FEF73EFA30688F
:10288000000601D5FEF739FA3068000601D5FEF7DB
:1028900034FA30680006EDD5FEF72FFA1408004828
:1028A000954A10684021414011603068000608D404
:1028B0003068000605D43068000602D4306800068F
:1028C000F3D55220B0813068000608D43068000685
:1028D00005D43068000602D430680006F3D56527B9
:1028E000B7813068000608D43068000605D4306827
:1028F000000602D430680006F3D56420B081316848
:10290000090608D43168090605D43168090602D4DD
:1029100031680906F3D5B5813168090608D43168F4
:10292000090605D43168090602D431680906F3D5D1
:102930004C21B1813168090608D43168090605D4F3
:102940003168090602D431680906F3D54521B18101
:102950003168090608D43168090605D431680906CA
:1029600002D431680906F3D50499B18131680906AA
:1029700008D43168090605D43168090602D43168E3
:102980000906F3D5B5813168090608D4316809060E
:1029900005D43168090602D431680906F3D57421DB
:1029A000B1813168090608D43168090605D4316857
:1029B000090602D431680906F3D56F21B181316867
:1029C000090608D43168090605D43168090602D41D
:1029D00031680906F3D56721B1813268120608D43F
:1029E0003268120605D43268120602D43268120622
:1029F000F3D5B1813168090608D43168090605D4D8
:102A00003168090602D431680906F3D56C21B18119
:102A10003168090608D43168090605D43168090609
:102A200002D431680906F3D5B7813168090608D4A4
:102A30003168090605D43168090602D431680906EF
:102A4000F3D5B0813068000608D43068000605D49C
:102A50003068000602D430680006F3D50A27B78133
:102A60003068000608D43068000605D430680006D7
:102A700002D430680006F3D50398B08130680006B0
:102A800008D43068000605D43068000602D43068E7
:102A90000006F3D50298B0813068000608D430688B
:102AA000000605D43068000602D430680006F3D56D
:102AB0000498B0813068000608D43068000605D458
:102AC0003068000602D430680006F3D53F20B0819C
:102AD0003068000601D5FEF710F93068000601D510
:102AE000FEF70BF93068000601D5FEF706F93068ED
:102AF0000006EDD5FEF701F91408004843088B42A3
:102B00001AD3002203098B4279D3030A8B425ED386
:102B1000030B8B4242D3030C8B4227D30902FF22C3
:102B200012BA030C8B4202D31212090203D0030B18
:102B30008B4233D31AE0D3E0411A8041401C7047E6
:102B400003460B4371D443088B42F5D3002203099B
:102B50008B4254D3030A8B4239D3030B8B421DD3D0
:102B6000030C8B4202D394466EE0090AC30B8B42DE
:102B700001D3CB03C01A5241830B8B4201D38B0389
:102B8000C01A5241430B8B4201D34B03C01A52412E
:102B9000030B8B4201D30B03C01A5241C30A8B4271
:102BA00001D3CB02C01A5241830A8B4201D38B025C
:102BB000C01A5241430A8B4201D34B02C01A524100
:102BC000030A8B4201D30B02C01A5241CDD2C30972
:102BD0008B4201D3CB01C01A524183098B4201D3EE
:102BE0008B01C01A524143098B4201D34B01C01AD9
:102BF000524103098B4201D30B01C01A5241C30851
:102C00008B4201D3CB00C01A524183088B4201D3BF
:102C10008B00C01A524143088B4201D34B00C01AAB
:102C20005241411A524110007047CA0F00D0494228
:102C3000031000D34042534000229C4603098B42BC
:102C40002DD3030A8B4212D38901FC2212BA030A44
:102C50008B420CD3890192118B4208D389019211C6
:102C60008B4204D3890137D0921100E08909C3094E
:102C70008B4201D3CB01C01A524183098B4201D34D
:102C80008B01C01A524143098B4201D34B01C01A38
:102C9000524103098B4201D30B01C01A5241C308B0
:102CA0008B4201D3CB00C01A524183088B4201D31F
:102CB0008B00C01A5241D9D243088B4201D34B003A
:102CC000C01A5241411A00D2014652411046634691
:102CD0005B1000D34042704763465B1000D3404214
:102CE00001B50021004201D0C9430846C046C04694
:102CF00002BD0000000000000000010203040607FE
:102D0000080902030405060708090A0B0C0D0E0F3B
:102D100010100102030405060708090A0B0C0D0E2A
:102D20000F100000482D00080000002010000000D7
:102D30001C010008582D000810000020700600003B
:102D40003C01000800000000010000000400000039
:082D500000127A0000000000EF
:04000005080000C12E
:00000001FF
